{
  "contractName": "DepositBox",
  "abi": [
    {
      "inputs": [],
      "payable": false,
      "stateMutability": "nonpayable",
      "type": "constructor"
    },
    {
      "constant": true,
      "inputs": [
        {
          "internalType": "address",
          "name": "",
          "type": "address"
        }
      ],
      "name": "deposits",
      "outputs": [
        {
          "internalType": "uint256",
          "name": "",
          "type": "uint256"
        }
      ],
      "payable": false,
      "stateMutability": "view",
      "type": "function"
    },
    {
      "constant": true,
      "inputs": [],
      "name": "owner",
      "outputs": [
        {
          "internalType": "address",
          "name": "",
          "type": "address"
        }
      ],
      "payable": false,
      "stateMutability": "view",
      "type": "function"
    },
    {
      "constant": false,
      "inputs": [],
      "name": "deposit",
      "outputs": [],
      "payable": true,
      "stateMutability": "payable",
      "type": "function"
    },
    {
      "constant": true,
      "inputs": [
        {
          "internalType": "address",
          "name": "_user",
          "type": "address"
        }
      ],
      "name": "balanceOf",
      "outputs": [
        {
          "internalType": "uint256",
          "name": "",
          "type": "uint256"
        }
      ],
      "payable": false,
      "stateMutability": "view",
      "type": "function"
    },
    {
      "constant": false,
      "inputs": [],
      "name": "withDraw",
      "outputs": [
        {
          "internalType": "bool",
          "name": "",
          "type": "bool"
        }
      ],
      "payable": true,
      "stateMutability": "payable",
      "type": "function"
    },
    {
      "constant": false,
      "inputs": [
        {
          "internalType": "uint256",
          "name": "amount",
          "type": "uint256"
        }
      ],
      "name": "withDraw2",
      "outputs": [
        {
          "internalType": "bool",
          "name": "",
          "type": "bool"
        }
      ],
      "payable": false,
      "stateMutability": "nonpayable",
      "type": "function"
    }
  ],
  "bytecode": "0x608060405234801561001057600080fd5b50336000806101000a81548173ffffffffffffffffffffffffffffffffffffffff021916908373ffffffffffffffffffffffffffffffffffffffff1602179055506103b0806100606000396000f3fe6080604052600436106100555760003560e01c80630fdb1c101461005a57806370a082311461007c5780638da5cb5b146100e1578063c983e16514610138578063d0e30db01461018b578063fc7e286d14610195575b600080fd5b6100626101fa565b604051808215151515815260200191505060405180910390f35b34801561008857600080fd5b506100cb6004803603602081101561009f57600080fd5b81019080803573ffffffffffffffffffffffffffffffffffffffff16906020019092919050505061024f565b6040518082815260200191505060405180910390f35b3480156100ed57600080fd5b506100f6610298565b604051808273ffffffffffffffffffffffffffffffffffffffff1673ffffffffffffffffffffffffffffffffffffffff16815260200191505060405180910390f35b34801561014457600080fd5b506101716004803603602081101561015b57600080fd5b81019080803590602001909291905050506102bd565b604051808215151515815260200191505060405180910390f35b610193610314565b005b3480156101a157600080fd5b506101e4600480360360208110156101b857600080fd5b81019080803573ffffffffffffffffffffffffffffffffffffffff169060200190929190505050610363565b6040518082815260200191505060405180910390f35b600034600160003373ffffffffffffffffffffffffffffffffffffffff1673ffffffffffffffffffffffffffffffffffffffff16815260200190815260200160002054101561024857600080fd5b6001905090565b6000600160008373ffffffffffffffffffffffffffffffffffffffff1673ffffffffffffffffffffffffffffffffffffffff168152602001908152602001600020549050919050565b6000809054906101000a900473ffffffffffffffffffffffffffffffffffffffff1681565b600081600160003373ffffffffffffffffffffffffffffffffffffffff1673ffffffffffffffffffffffffffffffffffffffff16815260200190815260200160002054101561030b57600080fd5b60019050919050565b34600160003373ffffffffffffffffffffffffffffffffffffffff1673ffffffffffffffffffffffffffffffffffffffff16815260200190815260200160002060008282540192505081905550565b6001602052806000526040600020600091509050548156fea265627a7a723158204151a63442fa02414c681f52257b75ea320c324f4cf09ea9224fc3b9b6ed827c64736f6c63430005100032",
  "source": "pragma solidity >=0.4.21 <0.7.0;\n\ncontract DepositBox {\n    address public owner;\n    mapping(address => uint256) public deposits;\n\n    constructor() public {\n        // Set the transaction sender as the owner of the contract.\n        owner = msg.sender;\n    }\n\n    // receive() external payable;\n\n    // fallback() external payable;\n\n    modifier onlyOwner() {\n        require(msg.sender == owner, \"Not owner\");\n        // Underscore is a special character only used inside\n        // a function modifier and it tells Solidity to\n        // execute the rest of the code.\n        _;\n    }\n\n    function deposit() public payable {\n        deposits[msg.sender] += msg.value;\n    }\n\n    function balanceOf(address _user) public view returns (uint256) {\n        return deposits[_user];\n    }\n\n    function withDraw() public payable returns (bool) {\n        require(deposits[msg.sender] >= msg.value);\n        msg.sender.call.value(msg.value);\n        return true;\n        // (bool sent, bytes memory data) = msg.sender.call({value: amount});\n        // require(sent, \"Failed to send Ether\");\n    }\n\n    function withDraw2(uint256 amount) public returns (bool) {\n        require(deposits[msg.sender] >= amount);\n        msg.sender.call.value(amount);\n        return true;\n        // (bool sent, bytes memory data) = msg.sender.call({value: amount});\n        // require(sent, \"Failed to send Ether\");\n    }\n\n    // function detectAmount(address _address) public onlyOwner {\n    //     owner = _newOwner;\n    // }\n}\n",
  "sourcePath": "/Users/praffulsahu/Documents/Crypto/Web3Weekend/InstaNFTFront/contracts/DepositBox.sol",
  "compiler": {
    "name": "solc",
    "version": "0.5.16+commit.9c3226ce.Emscripten.clang"
  },
  "schemaVersion": "3.3.3",
  "updatedAt": "2021-05-29T17:17:38.005Z",
  "devdoc": {
    "methods": {}
  },
  "userdoc": {
    "methods": {}
  }
}